:100000000C942A000C9447000C9447000C94470071
:100010000C9447000C9447000C9447000C94470044
:100020000C9447000C9447000C9447000C94470034
:100030000C9447000C9447000C9447000C94470024
:100040000C9447000C9447000C9447000C94470014
:100050000C94470011241FBECFE5D8E0DEBFCDBF12
:1000600011E0A0E6B0E0E0EBFBE002C005900D92ED
:10007000AE38B107D9F721E0AEE8B1E001C01D927A
:10008000A23AB207E1F70E9460010C94D6050C94E5
:10009000000023E023BF33E808C032BF28B7216047
:1000A00028BFA89508B600FEFDCF0197B0F713BE94
:1000B0000895CF93C62F14BA94B321E030E0A9017C
:1000C00002C0440F551F8A95E2F7492B44BB85B304
:1000D00002C0220F331F6A95E2F7282B25BB85E06B
:1000E00090E00E94490083B390E002C09595879507
:1000F000CA95E2F721E082278170CF91089560E0F0
:1001000080E00E9495018CE0E0E6F0E0AEE8B1E02E
:1001100001900D928A95E1F78EE891E00E94A90185
:100120008BE0ECE6F0E0AEE8B1E001900D928A954C
:10013000E1F760E081E00E9495018EE891E00E9485
:10014000A901089560E080E00E94950183E1E7E75E
:10015000F0E0AEE8B1E001900D928A95E1F78EE80B
:1001600091E00E94A90160E081E00E9495018FE08A
:10017000EAE8F0E0AEE8B1E001900D928A95E1F78F
:100180008EE891E00E94A90184EF91E00E9449006D
:100190000E94900160E080E00E9495018EE891E06D
:1001A0000E94A90160E081E00E9495018CE0E9E9EC
:1001B000F0E0AEE8B1E001900D928A95E1F78EE8AB
:1001C00091E00E94A90184EF91E00E9449000E9401
:1001D000900160E080E00E9495018EE891E00E942D
:1001E000A90160E081E00E9495018BE0E5EAF0E082
:1001F000AEE8B1E001900D928A95E1F78EE891E0CA
:100200000E94A90184EF91E00E9449000E949001A0
:1002100060E080E00E9495018EE891E00E94A901D3
:1002200060E081E00E94950189E0E0EBF0E0AEE85B
:10023000B1E001900D928A95E1F78EE891E00E947D
:10024000A90184EF91E00E9449000E94900160E0C2
:1002500080E00E9495018DE0E9EBF0E0AEE8B1E0CE
:1002600001900D928A95E1F78EE891E00E94A90134
:1002700060E081E00E9495018DE0E6ECF0E0AEE800
:10028000B1E001900D928A95E1F78EE891E00E942D
:10029000A90108950E947F0067E080E00E94590054
:1002A0008823D1F306C00E94A20084E690E00E9459
:1002B000490067E080E00E9459008823A1F3089577
:1002C000C0E0D1E0CC2319F0C13029F007C00E9472
:1002D0004A01CD2FF7CF0E94BA01F4CF0E944A0104
:1002E000F1CF662311F0C09A01C0C098C19882BBBB
:1002F0008FEF81BBC29A000000000000C2980895F1
:10030000C098C19A11BA90B3C29A000000000000D0
:1003100011BA90B3C29899239CF30E947101089579
:1003200060E081E00E9480010895CF93C62F98E29B
:10033000899FC00D112460E082E00E948001CC23DF
:1003400031F060E084E10E948001C150D1F7CF918B
:100350000895CF93DF93EC012196FC0180818823DF
:1003600031F061E00E94800189918111FACFDF9123
:10037000CF9108955F926F927F928F929F92AF92EA
:10038000BF92CF92DF92EF92FF920F931F93CF9382
:10039000DF93CDB7DEB72A970FB6F894DEBF0FBE56
:1003A000CDBF0F2EF3ED8F2EF0E09F2EF02DCE015E
:1003B00001966C015C01E12CF12C0EE811E00F2E8E
:1003C000F7E16F2EF02D0F2EF5E15F2EF02D60E09E
:1003D00080E00E949501E0EEF0E0D801862D0190CA
:1003E0000D928A95E1F7C8010E94A90160E081E0C1
:1003F0000E949501F40171904F011F927F921F930B
:100400000F930E940503C8010E94A9010F900F904D
:100410000F900F90F5E0EF16F104ACF10E949001FF
:1004200060E080E00E949501E7EFF0E0D801852DC3
:1004300001900D928A95E1F7C8010E94A90160E040
:1004400081E00E9495011F927F921F930F930E945B
:100450000503C8010E94A9010F900F900F900F9003
:1004600064E080E00E945900882321F081E0F501DA
:1004700080831BC064E081E00E945900882381F3DF
:10048000F501108212C064E080E00E9459008823C8
:1004900021F081E0F501808308C064E081E00E94E2
:1004A0005900882381F3F5011082FFEFEF1AFF0A4C
:1004B0008FEFA81AB80A9AE0E916F10409F087CF7D
:1004C0006EE371E040E050E000E010E0E12CF12C40
:1004D000CE010B968C2C9D2CA12CB12C15C0C1905B
:1004E000DD90CD1002C02F5F3F4FE817F907B9F735
:1004F000E216F30614F48A0179014F5F5F4F665FDD
:100500007F4F4730510531F0DB01E82DF92D2A2DC1
:100510003B2DE5CF0E94900160E080E00E949501B4
:100520000F2EFEE8EF2EF1E0FF2EF02D85E1ECE03E
:10053000F1E0D70101900D928A95E1F7C7010E9481
:10054000A90160E081E00E949501F801EF5DFE4F96
:1005500080811F928F93FF92EF920E940503C70143
:100560000E94A9010F900F900F900F901DE064E082
:1005700080E00E9459008823A1F00E94900160E071
:1005800080E00E9495018CE0E5E2F1E0AEE8B1E0A8
:1005900001900D928A95E1F78EE891E00E94A90101
:1005A0001EC064E081E00E945900882301F30E948C
:1005B000900160E080E00E949501E1E3F1E0AEE8A7
:1005C000B1E0812F01900D928A95E1F78EE891E0DC
:1005D0000E94A90160E081E00E949501C8CF2A969F
:1005E0000FB6F894DEBF0FBECDBFDF91CF911F9144
:1005F0000F91FF90EF90DF90CF90BF90AF909F90C2
:100600008F907F906F905F900895AEE0B0E0EBE048
:10061000F3E00C94AD050D891E8986E08C831A8366
:1006200009838FEF9FE79E838D83AE01475E5F4F07
:100630006F89788DCE0101960E942703EF81F8859E
:10064000E00FF11F10822E96E4E00C94C905ACE097
:10065000B0E0EDE2F3E00C949F057C016B018A01B0
:10066000FC0117821682838181FFBDC1CE010196F4
:100670004C01F7019381F60193FD859193FF8191E0
:100680006F01882309F4ABC1853239F493FD85915C
:1006900093FF81916F01853229F4B70190E00E94A8
:1006A0000F05E7CF512C312C20E02032A0F48B3203
:1006B00069F030F4803259F0833269F420612CC043
:1006C0008D3239F0803339F4216026C022602460F5
:1006D00023C0286021C027FD27C030ED380F3A30F5
:1006E00078F426FF06C0FAE05F9E300D1124532EE9
:1006F00013C08AE0389E300D1124332E20620CC0C6
:100700008E3221F426FD6BC1206406C08C3611F4B4
:10071000206802C0883641F4F60193FD859193FF6D
:1007200081916F018111C1CF982F9F7D9554933096
:1007300028F40C5F1F4FFFE3F9830DC0833631F0BF
:10074000833771F0833509F05BC022C0F8018081E6
:1007500089830E5F1F4F44244394512C540115C0CC
:100760003801F2E06F0E711CF801A080B18026FF05
:1007700003C0652D70E002C06FEF7FEFC5012C87CD
:100780000E9404052C0183012C852F77222E17C08F
:100790003801F2E06F0E711CF801A080B18026FFD5
:1007A00003C0652D70E002C06FEF7FEFC5012C879D
:1007B0000E94F9042C012C852068222E830123FC41
:1007C0001BC0832D90E048165906B0F4B70180E2B3
:1007D00090E00E940F053A94F4CFF50127FC859133
:1007E00027FE81915F01B70190E00E940F05311053
:1007F0003A94F1E04F1A51084114510471F7E5C0E1
:10080000843611F0893639F5F80127FF07C0608179
:100810007181828193810C5F1F4F08C0608171815B
:10082000882777FD8095982F0E5F1F4F2F76B22E69
:1008300097FF09C090958095709561957F4F8F4F78
:100840009F4F2068B22E2AE030E0A4010E944105AB
:10085000A82EA81844C0853729F42F7EB22E2AE08E
:1008600030E025C0F22FF97FBF2E8F36C1F018F48B
:10087000883579F0B4C0803719F0883721F0AFC0DF
:100880002F2F2061B22EB4FE0DC08B2D8460B82EA8
:1008900009C024FF0AC09F2F9660B92E06C028E029
:1008A00030E005C020E130E002C020E132E0F80194
:1008B000B7FE07C060817181828193810C5F1F4FF9
:1008C00006C06081718180E090E00E5F1F4FA4013F
:1008D0000E944105A82EA818FB2DFF77BF2EB6FE5B
:1008E0000BC02B2D2E7FA51450F4B4FE0AC0B2FC11
:1008F00008C02B2D2E7E05C07A2C2B2D03C07A2C00
:1009000001C0752C24FF0DC0FE01EA0DF11D808190
:10091000803311F4297E09C022FF06C073947394BA
:1009200004C0822F867809F0739423FD13C020FF42
:1009300006C05A2C731418F4530C5718732C7314E4
:1009400068F4B70180E290E02C870E940F05739451
:100950002C85F5CF731410F4371801C0312C24FF07
:1009600012C0B70180E390E02C870E940F052C8510
:1009700022FF17C021FF03C088E590E002C088E78E
:1009800090E0B7010CC0822F867859F021FD02C09B
:1009900080E201C08BE227FD8DE2B70190E00E946A
:1009A0000F05A51438F4B70180E390E00E940F050D
:1009B0005A94F7CFAA94F401EA0DF11D8081B70192
:1009C00090E00E940F05A110F5CF332009F451CE1D
:1009D000B70180E290E00E940F053A94F6CFF7014C
:1009E0008681978102C08FEF9FEF2C96E2E10C94F5
:1009F000BB05FC010590615070400110D8F780954F
:100A000090958E0F9F1F0895FC01615070400190DA
:100A10000110D8F7809590958E0F9F1F08950F9322
:100A20001F93CF93DF93182F092FEB018B8181FD4B
:100A300003C08FEF9FEF20C082FF10C04E815F8107
:100A40002C813D81421753077CF4E881F9819F0195
:100A50002F5F3F4F39832883108306C0E885F985CF
:100A6000812F0995892B29F72E813F812F5F3F4FD9
:100A70003F832E83812F902FDF91CF911F910F9174
:100A80000895FA01AA27283051F1203181F1E89424
:100A90006F936E7F6E5F7F4F8F4F9F4FAF4FB1E071
:100AA0003ED0B4E03CD0670F781F891F9A1FA11D6C
:100AB000680F791F8A1F911DA11D6A0F711D811D6D
:100AC000911DA11D20D009F468943F912AE0269F32
:100AD00011243019305D3193DEF6CF010895462F91
:100AE0004770405D4193B3E00FD0C9F7F6CF462F72
:100AF0004F70405D4A3318F0495D31FD40524193DB
:100B000002D0A9F7EACFB4E0A69597958795779597
:100B10006795BA95C9F700976105710508959B011E
:100B2000AC010A2E06945795479537952795BA95A7
:100B3000C9F7620F731F841F951FA01D08952F9280
:100B40003F924F925F926F927F928F929F92AF925D
:100B5000BF92CF92DF92EF92FF920F931F93CF93AA
:100B6000DF93CDB7DEB7CA1BDB0B0FB6F894DEBF41
:100B70000FBECDBF09942A88398848885F846E8467
:100B80007D848C849B84AA84B984C884DF80EE80B1
:100B9000FD800C811B81AA81B981CE0FD11D0FB6BA
:100BA000F894DEBF0FBECDBFED010895F894FFCFDE
:100BB0003130205175657374696F6E004120746F18
:100BC000205374617274005468696E6B206F6620E4
:100BD000616E20416E696D616C00492077696C6CB3
:100BE0002061736B20796F750031302071756573EA
:100BF00074696F6E00416E6420492077696C6C00E7
:100C00004775657373206974005072657373204172
:100C1000207768656E00596F75277265207265616F
:100C2000647900486176652034206C6567733F0005
:100C3000446F657320796F757220616E696D616CA8
:100C4000202E202E202E00497320796F757220618E
:100C50006E696D616C202E202E202E00596F7572EA
:100C600020616E696D616C206973202E202E202E0C
:100C700000446F6700506C617920616761696E3F65
:100C80000057686174207761732069743F00010127
:100C90000101010100000101010101010101000048
:100CA000010001010000000100010100000000003E
:100CB000010101010000000000010101000000002D
:100CC000010100010000010001010001000000011C
:0E0CD000000100010000000000000000000014
:00000001FF
